{
  "address": "0x06E8DBb83a1aad99E36d8C5eBC7Fcc2A3Bce901E",
  "abi": [
    {
      "anonymous": false,
      "inputs": [
        {
          "indexed": true,
          "internalType": "address",
          "name": "rewardToken",
          "type": "address"
        },
        {
          "indexed": true,
          "internalType": "address",
          "name": "cToken",
          "type": "address"
        },
        {
          "indexed": false,
          "internalType": "uint256",
          "name": "borrowSpeed",
          "type": "uint256"
        }
      ],
      "name": "BorrowSpeedUpdated",
      "type": "event"
    },
    {
      "anonymous": false,
      "inputs": [
        {
          "indexed": false,
          "internalType": "uint8",
          "name": "version",
          "type": "uint8"
        }
      ],
      "name": "Initialized",
      "type": "event"
    },
    {
      "anonymous": false,
      "inputs": [
        {
          "indexed": true,
          "internalType": "address",
          "name": "previousOwner",
          "type": "address"
        },
        {
          "indexed": true,
          "internalType": "address",
          "name": "newOwner",
          "type": "address"
        }
      ],
      "name": "OwnershipTransferred",
      "type": "event"
    },
    {
      "anonymous": false,
      "inputs": [
        {
          "indexed": true,
          "internalType": "address",
          "name": "rewardToken",
          "type": "address"
        },
        {
          "indexed": true,
          "internalType": "address",
          "name": "user",
          "type": "address"
        },
        {
          "indexed": false,
          "internalType": "uint256",
          "name": "amount",
          "type": "uint256"
        }
      ],
      "name": "RewardAccrued",
      "type": "event"
    },
    {
      "anonymous": false,
      "inputs": [
        {
          "indexed": true,
          "internalType": "address",
          "name": "rewardToken",
          "type": "address"
        },
        {
          "indexed": true,
          "internalType": "address",
          "name": "user",
          "type": "address"
        },
        {
          "indexed": false,
          "internalType": "uint256",
          "name": "amount",
          "type": "uint256"
        }
      ],
      "name": "RewardDistributed",
      "type": "event"
    },
    {
      "anonymous": false,
      "inputs": [
        {
          "indexed": true,
          "internalType": "address",
          "name": "rewardToken",
          "type": "address"
        },
        {
          "indexed": true,
          "internalType": "address",
          "name": "cToken",
          "type": "address"
        },
        {
          "indexed": false,
          "internalType": "uint256",
          "name": "supplySpeed",
          "type": "uint256"
        }
      ],
      "name": "SupplySpeedUpdated",
      "type": "event"
    },
    {
      "inputs": [
        {
          "internalType": "address",
          "name": "token",
          "type": "address"
        },
        {
          "internalType": "address",
          "name": "user",
          "type": "address"
        },
        {
          "internalType": "uint256",
          "name": "amount",
          "type": "uint256"
        }
      ],
      "name": "_grantReward",
      "outputs": [],
      "stateMutability": "nonpayable",
      "type": "function"
    },
    {
      "inputs": [
        {
          "internalType": "address",
          "name": "rewardToken_",
          "type": "address"
        },
        {
          "internalType": "address[]",
          "name": "cTokens",
          "type": "address[]"
        },
        {
          "internalType": "uint256[]",
          "name": "supplySpeeds",
          "type": "uint256[]"
        },
        {
          "internalType": "uint256[]",
          "name": "borrowSpeeds",
          "type": "uint256[]"
        }
      ],
      "name": "_updateRewardSpeeds",
      "outputs": [],
      "stateMutability": "nonpayable",
      "type": "function"
    },
    {
      "inputs": [
        {
          "internalType": "address",
          "name": "rewardToken_",
          "type": "address"
        }
      ],
      "name": "_whitelistToken",
      "outputs": [],
      "stateMutability": "nonpayable",
      "type": "function"
    },
    {
      "inputs": [
        {
          "internalType": "address[]",
          "name": "holders",
          "type": "address[]"
        }
      ],
      "name": "claim",
      "outputs": [],
      "stateMutability": "nonpayable",
      "type": "function"
    },
    {
      "inputs": [],
      "name": "comptroller",
      "outputs": [
        {
          "internalType": "address",
          "name": "",
          "type": "address"
        }
      ],
      "stateMutability": "view",
      "type": "function"
    },
    {
      "inputs": [],
      "name": "getBlockNumber",
      "outputs": [
        {
          "internalType": "uint32",
          "name": "",
          "type": "uint32"
        }
      ],
      "stateMutability": "view",
      "type": "function"
    },
    {
      "inputs": [],
      "name": "getRewardTokens",
      "outputs": [
        {
          "internalType": "address[]",
          "name": "",
          "type": "address[]"
        }
      ],
      "stateMutability": "view",
      "type": "function"
    },
    {
      "inputs": [
        {
          "internalType": "address",
          "name": "comptroller_",
          "type": "address"
        }
      ],
      "name": "initialize",
      "outputs": [],
      "stateMutability": "nonpayable",
      "type": "function"
    },
    {
      "inputs": [
        {
          "internalType": "address",
          "name": "cToken",
          "type": "address"
        }
      ],
      "name": "notifyBorrowIndex",
      "outputs": [],
      "stateMutability": "nonpayable",
      "type": "function"
    },
    {
      "inputs": [
        {
          "internalType": "address",
          "name": "cToken",
          "type": "address"
        },
        {
          "internalType": "address",
          "name": "borrower",
          "type": "address"
        }
      ],
      "name": "notifyBorrower",
      "outputs": [],
      "stateMutability": "nonpayable",
      "type": "function"
    },
    {
      "inputs": [
        {
          "internalType": "address",
          "name": "cToken",
          "type": "address"
        },
        {
          "internalType": "address",
          "name": "supplier",
          "type": "address"
        }
      ],
      "name": "notifySupplier",
      "outputs": [],
      "stateMutability": "nonpayable",
      "type": "function"
    },
    {
      "inputs": [
        {
          "internalType": "address",
          "name": "cToken",
          "type": "address"
        }
      ],
      "name": "notifySupplyIndex",
      "outputs": [],
      "stateMutability": "nonpayable",
      "type": "function"
    },
    {
      "inputs": [],
      "name": "owner",
      "outputs": [
        {
          "internalType": "address",
          "name": "",
          "type": "address"
        }
      ],
      "stateMutability": "view",
      "type": "function"
    },
    {
      "inputs": [],
      "name": "renounceOwnership",
      "outputs": [],
      "stateMutability": "nonpayable",
      "type": "function"
    },
    {
      "inputs": [
        {
          "internalType": "address",
          "name": "",
          "type": "address"
        },
        {
          "internalType": "address",
          "name": "",
          "type": "address"
        }
      ],
      "name": "rewardAccountState",
      "outputs": [
        {
          "internalType": "uint256",
          "name": "rewardAccrued",
          "type": "uint256"
        }
      ],
      "stateMutability": "view",
      "type": "function"
    },
    {
      "inputs": [],
      "name": "rewardInitialIndex",
      "outputs": [
        {
          "internalType": "uint224",
          "name": "",
          "type": "uint224"
        }
      ],
      "stateMutability": "view",
      "type": "function"
    },
    {
      "inputs": [
        {
          "internalType": "address",
          "name": "",
          "type": "address"
        },
        {
          "internalType": "address",
          "name": "",
          "type": "address"
        }
      ],
      "name": "rewardMarketState",
      "outputs": [
        {
          "internalType": "uint256",
          "name": "supplySpeed",
          "type": "uint256"
        },
        {
          "internalType": "uint224",
          "name": "supplyIndex",
          "type": "uint224"
        },
        {
          "internalType": "uint32",
          "name": "supplyBlock",
          "type": "uint32"
        },
        {
          "internalType": "uint256",
          "name": "borrowSpeed",
          "type": "uint256"
        },
        {
          "internalType": "uint224",
          "name": "borrowIndex",
          "type": "uint224"
        },
        {
          "internalType": "uint32",
          "name": "borrowBlock",
          "type": "uint32"
        }
      ],
      "stateMutability": "view",
      "type": "function"
    },
    {
      "inputs": [
        {
          "internalType": "address",
          "name": "",
          "type": "address"
        }
      ],
      "name": "rewardTokenExists",
      "outputs": [
        {
          "internalType": "bool",
          "name": "",
          "type": "bool"
        }
      ],
      "stateMutability": "view",
      "type": "function"
    },
    {
      "inputs": [
        {
          "internalType": "uint256",
          "name": "",
          "type": "uint256"
        }
      ],
      "name": "rewardTokens",
      "outputs": [
        {
          "internalType": "address",
          "name": "",
          "type": "address"
        }
      ],
      "stateMutability": "view",
      "type": "function"
    },
    {
      "inputs": [
        {
          "internalType": "address",
          "name": "newOwner",
          "type": "address"
        }
      ],
      "name": "transferOwnership",
      "outputs": [],
      "stateMutability": "nonpayable",
      "type": "function"
    }
  ],
  "transactionHash": "0x701ba8f87a58f393629ccae7b9c933ce4f74927a9d2d194a5716a8e5a7737b7a",
  "args": [],
  "numDeployments": 2,
  "solcInputHash": "42533361744b86e47799bf73b0421ef7",
  "bytecode": "0x608060405234801561001057600080fd5b50611e62806100206000396000f3fe608060405234801561001057600080fd5b506004361061012c5760003560e01c80637bb7bed1116100ad578063c4f59f9b11610071578063c4f59f9b1461035e578063e86b2fbe14610373578063eb8f280614610386578063f2fde38b14610399578063f49dc6b6146103ac57600080fd5b80637bb7bed1146102d8578063831e8dec146102eb5780638da5cb5b146103275780638daa0acb14610338578063c4d66de81461034b57600080fd5b806345a49d3c116100f457806345a49d3c146102525780635ce65fe9146102655780635fe3b5671461027857806366f91a24146102a3578063715018a6146102d057600080fd5b8063246467e8146101315780632e4a5d6014610146578063318d9e5d1461017e57806332894a6d1461019157806342cbb15c14610235575b600080fd5b61014461013f36600461191a565b6103bf565b005b610169610154366004611956565b60696020526000908152604090205460ff1681565b60405190151581526020015b60405180910390f35b61014461018c366004611a4e565b610462565b6101f461019f366004611a8b565b6066602090815260009283526040808420909152908252902080546001820154600283015460039093015491926001600160e01b038083169363ffffffff600160e01b94859004811694928216929091041686565b604080519687526001600160e01b03958616602088015263ffffffff94851690870152606086019290925290921660808401521660a082015260c001610175565b61023d6104e0565b60405163ffffffff9091168152602001610175565b610144610260366004611a8b565b610526565b610144610273366004611956565b6105a6565b60655461028b906001600160a01b031681565b6040516001600160a01b039091168152602001610175565b6102b86a0c097ce7bc90715b34b9f160241b81565b6040516001600160e01b039091168152602001610175565b610144610620565b61028b6102e6366004611abe565b610634565b6103196102f9366004611a8b565b606760209081526000928352604080842090915290825290206002015481565b604051908152602001610175565b6033546001600160a01b031661028b565b610144610346366004611956565b61065e565b610144610359366004611956565b6107c2565b6103666108ee565b6040516101759190611ad7565b610144610381366004611956565b610950565b610144610394366004611a8b565b6109ca565b6101446103a7366004611956565b610a45565b6101446103ba366004611b7f565b610abe565b6103c7610c9f565b6001600160a01b03831660009081526069602052604090205460ff166104515760405162461bcd60e51b815260206004820152603460248201527f5265776172644469737472696275746f723a206772616e7420726577617264206044820152731d1bdad95b88191bd95cc81b9bdd08195e1a5cdd60621b60648201526084015b60405180910390fd5b61045c838383610cf9565b50505050565b6065546001600160a01b0316331461048c5760405162461bcd60e51b815260040161044890611c18565b60005b6068548110156104dc576104ca606882815481106104af576104af611c75565b6000918252602090912001546001600160a01b031683610e07565b806104d481611ca1565b91505061048f565b5050565b6000610521426040518060400160405280601c81526020017f626c6f636b206e756d6265722065786365656473203332206269747300000000815250610eab565b905090565b6065546001600160a01b031633146105505760405162461bcd60e51b815260040161044890611c18565b60005b6068548110156105a15761058f6068828154811061057357610573611c75565b6000918252602090912001546001600160a01b03168484610edb565b8061059981611ca1565b915050610553565b505050565b6065546001600160a01b031633146105d05760405162461bcd60e51b815260040161044890611c18565b60005b6068548110156104dc5761060e606882815481106105f3576105f3611c75565b6000918252602090912001546001600160a01b03168361102a565b8061061881611ca1565b9150506105d3565b610628610c9f565b610632600061127c565b565b6068818154811061064457600080fd5b6000918252602090912001546001600160a01b0316905081565b610666610c9f565b6001600160a01b0381166106db5760405162461bcd60e51b815260206004820152603660248201527f5265776172644469737472696275746f723a2072657761726420746f6b656e2060448201527563616e6e6f74206265207a65726f206164647265737360501b6064820152608401610448565b6001600160a01b03811660009081526069602052604090205460ff161561075b5760405162461bcd60e51b815260206004820152602e60248201527f5265776172644469737472696275746f723a2072657761726420746f6b656e2060448201526d616c72656164792065786973747360901b6064820152608401610448565b6068805460018181019092557fa2153420d844928b4421650203c77babc8b33d7f2e7b450e2966db0c220977530180546001600160a01b039093166001600160a01b031990931683179055600091825260696020526040909120805460ff19169091179055565b600054610100900460ff16158080156107e25750600054600160ff909116105b806107fc5750303b1580156107fc575060005460ff166001145b61085f5760405162461bcd60e51b815260206004820152602e60248201527f496e697469616c697a61626c653a20636f6e747261637420697320616c72656160448201526d191e481a5b9a5d1a585b1a5e995960921b6064820152608401610448565b6000805460ff191660011790558015610882576000805461ff0019166101001790555b61088a6112ce565b606580546001600160a01b0319166001600160a01b03841617905580156104dc576000805461ff0019169055604051600181527f7f26b83ff96e1f2b6a682f133852f6798a09c465da95921460cefb38474024989060200160405180910390a15050565b6060606880548060200260200160405190810160405280929190818152602001828054801561094657602002820191906000526020600020905b81546001600160a01b03168152600190910190602001808311610928575b5050505050905090565b6065546001600160a01b0316331461097a5760405162461bcd60e51b815260040161044890611c18565b60005b6068548110156104dc576109b86068828154811061099d5761099d611c75565b6000918252602090912001546001600160a01b0316836112fd565b806109c281611ca1565b91505061097d565b6065546001600160a01b031633146109f45760405162461bcd60e51b815260040161044890611c18565b60005b6068548110156105a157610a3360688281548110610a1757610a17611c75565b6000918252602090912001546001600160a01b03168484611495565b80610a3d81611ca1565b9150506109f7565b610a4d610c9f565b6001600160a01b038116610ab25760405162461bcd60e51b815260206004820152602660248201527f4f776e61626c653a206e6577206f776e657220697320746865207a65726f206160448201526564647265737360d01b6064820152608401610448565b610abb8161127c565b50565b610ac6610c9f565b6001600160a01b03841660009081526069602052604090205460ff16610b455760405162461bcd60e51b815260206004820152602e60248201527f5265776172644469737472696275746f723a2072657761726420746f6b656e2060448201526d191bd95cc81b9bdd08195e1a5cdd60921b6064820152608401610448565b8151835114610bb45760405162461bcd60e51b815260206004820152603560248201527f5265776172644469737472696275746f723a20737570706c79207370656564206044820152740c2e4e4c2f240d8cadccee8d040dad2e6dac2e8c6d605b1b6064820152608401610448565b8051835114610c235760405162461bcd60e51b815260206004820152603560248201527f5265776172644469737472696275746f723a20626f72726f77207370656564206044820152740c2e4e4c2f240d8cadccee8d040dad2e6dac2e8c6d605b1b6064820152608401610448565b60005b8351811015610c9857610c8685858381518110610c4557610c45611c75565b6020026020010151858481518110610c5f57610c5f611c75565b6020026020010151858581518110610c7957610c79611c75565b6020026020010151611666565b80610c9081611ca1565b915050610c26565b5050505050565b6033546001600160a01b031633146106325760405162461bcd60e51b815260206004820181905260248201527f4f776e61626c653a2063616c6c6572206973206e6f7420746865206f776e65726044820152606401610448565b6040516370a0823160e01b815230600482015260009081906001600160a01b038616906370a0823190602401602060405180830381865afa158015610d42573d6000803e3d6000fd5b505050506040513d601f19601f82011682018060405250810190610d669190611cbc565b9050600083118015610d785750808311155b15610dfb5760405163a9059cbb60e01b81526001600160a01b0385811660048301526024820185905286169063a9059cbb906044016020604051808303816000875af1158015610dcc573d6000803e3d6000fd5b505050506040513d601f19601f82011682018060405250810190610df09190611cd5565b506000915050610e00565b829150505b9392505050565b60005b81518110156105a1576001600160a01b038316600090815260676020526040812083518290859085908110610e4157610e41611c75565b60200260200101516001600160a01b03166001600160a01b031681526020019081526020016000209050610e9384848481518110610e8157610e81611c75565b60200260200101518360020154610cf9565b60029091015580610ea381611ca1565b915050610e0a565b6000816401000000008410610ed35760405162461bcd60e51b81526004016104489190611cf7565b509192915050565b6001600160a01b03808416600081815260666020908152604080832087861680855290835281842094845260678352818420958716845294825280832060018501549584529182905290912080546001600160e01b0390941690819055919290919080158015610f5957506a0c097ce7bc90715b34b9f160241b8210155b15610f6f57506a0c097ce7bc90715b34b9f160241b5b60006040518060200160405280610f8685856117c0565b90526040516370a0823160e01b81526001600160a01b0388811660048301529192506000918916906370a0823190602401602060405180830381865afa158015610fd4573d6000803e3d6000fd5b505050506040513d601f19601f82011682018060405250810190610ff89190611cbc565b9050600061100682846117cc565b90506110168660020154826117f5565b866002018190555050505050505050505050565b60006040518060200160405280836001600160a01b031663aa5af0fd6040518163ffffffff1660e01b8152600401602060405180830381865afa158015611075573d6000803e3d6000fd5b505050506040513d601f19601f820116820180604052508101906110999190611cbc565b90526001600160a01b03808516600090815260666020908152604080832093871683529290529081209192506110cd6104e0565b600383015490915063ffffffff600160e01b90910481169082161115610c985760028201541561125457600382015460009061111690600160e01b900463ffffffff1683611d4c565b63ffffffff169050600061118b866001600160a01b03166347bd37186040518163ffffffff1660e01b8152600401602060405180830381865afa158015611161573d6000803e3d6000fd5b505050506040513d601f19601f820116820180604052508101906111859190611cbc565b86611801565b9050600061119d83866002015461181f565b905060008083116111bd57604051806020016040528060008152506111c7565b6111c7828461182b565b604080516020810190915260038801546001600160e01b0316815290915061122d906111f3908361186f565b5160408051808201909152601a81527f6e657720696e6465782065786365656473203232342062697473000000000000602082015261189b565b6003870180546001600160e01b0319166001600160e01b0392909216919091179055505050505b60038201805463ffffffff8316600160e01b026001600160e01b039091161790555050505050565b603380546001600160a01b038381166001600160a01b0319831681179093556040519116919082907f8be0079c531659141344cd1fd0a4f28419497f9722a3daafe3b4186f6b6457e090600090a35050565b600054610100900460ff166112f55760405162461bcd60e51b815260040161044890611d71565b6106326118c2565b6001600160a01b03808316600090815260666020908152604080832093851683529290529081209061132d6104e0565b600183015490915063ffffffff600160e01b9091048116908216111561045c5781541561146e57600182015460009061137390600160e01b900463ffffffff1683611d4c565b63ffffffff1690506000846001600160a01b03166318160ddd6040518163ffffffff1660e01b8152600401602060405180830381865afa1580156113bb573d6000803e3d6000fd5b505050506040513d601f19601f820116820180604052508101906113df9190611cbc565b905060006113f183866000015461181f565b90506000808311611411576040518060200160405280600081525061141b565b61141b828461182b565b604080516020810190915260018801546001600160e01b03168152909150611447906111f3908361186f565b6001870180546001600160e01b0319166001600160e01b0392909216919091179055505050505b60018201805463ffffffff8316600160e01b026001600160e01b0390911617905550505050565b60006040518060200160405280846001600160a01b031663aa5af0fd6040518163ffffffff1660e01b8152600401602060405180830381865afa1580156114e0573d6000803e3d6000fd5b505050506040513d601f19601f820116820180604052508101906115049190611cbc565b90526001600160a01b03808616600081815260666020908152604080832089861680855290835281842094845260678352818420958916845294825280832060038501549584526001810190925290912080546001600160e01b0390941690819055939450909290918015801561158957506a0c097ce7bc90715b34b9f160241b8210155b1561159f57506a0c097ce7bc90715b34b9f160241b5b600060405180602001604052806115b685856117c0565b90526040516395dd919360e01b81526001600160a01b03898116600483015291925060009161163391908b16906395dd919390602401602060405180830381865afa158015611609573d6000803e3d6000fd5b505050506040513d601f19601f8201168201806040525081019061162d9190611cbc565b88611801565b9050600061164182846117cc565b90506116518660020154826117f5565b86600201819055505050505050505050505050565b6001600160a01b038085166000908152606660209081526040808320938716835292905220805483146117195760018101546001600160e01b03166116c8576001810180546001600160e01b0319166a0c097ce7bc90715b34b9f160241b1790555b6116d285856112fd565b8281556040518381526001600160a01b0385811691908716907f61918eb908e35e96d460dc030b7c4f6448ac64f1383759571b9c7cab50efd0469060200160405180910390a35b81816002015414610c985760038101546001600160e01b0316611759576003810180546001600160e01b0319166a0c097ce7bc90715b34b9f160241b1790555b611763858561102a565b818160020181905550836001600160a01b0316856001600160a01b03167f13b9c4bac6e50afba9701545614343a5e29bc815d483928198270e878c42eaf9846040516117b191815260200190565b60405180910390a35050505050565b6000610e008284611dbc565b60006a0c097ce7bc90715b34b9f160241b6117eb84846000015161181f565b610e009190611dd3565b6000610e008284611df5565b6000610e0061181884670de0b6b3a764000061181f565b83516118f2565b6000610e008284611e0d565b6040805160208101909152600081526040518060200160405280611866611860866a0c097ce7bc90715b34b9f160241b61181f565b856118f2565b90529392505050565b6040805160208101909152600081526040518060200160405280611866856000015185600001516117f5565b600081600160e01b8410610ed35760405162461bcd60e51b81526004016104489190611cf7565b600054610100900460ff166118e95760405162461bcd60e51b815260040161044890611d71565b6106323361127c565b6000610e008284611dd3565b80356001600160a01b038116811461191557600080fd5b919050565b60008060006060848603121561192f57600080fd5b611938846118fe565b9250611946602085016118fe565b9150604084013590509250925092565b60006020828403121561196857600080fd5b610e00826118fe565b634e487b7160e01b600052604160045260246000fd5b604051601f8201601f1916810167ffffffffffffffff811182821017156119b0576119b0611971565b604052919050565b600067ffffffffffffffff8211156119d2576119d2611971565b5060051b60200190565b600082601f8301126119ed57600080fd5b81356020611a026119fd836119b8565b611987565b82815260059290921b84018101918181019086841115611a2157600080fd5b8286015b84811015611a4357611a36816118fe565b8352918301918301611a25565b509695505050505050565b600060208284031215611a6057600080fd5b813567ffffffffffffffff811115611a7757600080fd5b611a83848285016119dc565b949350505050565b60008060408385031215611a9e57600080fd5b611aa7836118fe565b9150611ab5602084016118fe565b90509250929050565b600060208284031215611ad057600080fd5b5035919050565b6020808252825182820181905260009190848201906040850190845b81811015611b185783516001600160a01b031683529284019291840191600101611af3565b50909695505050505050565b600082601f830112611b3557600080fd5b81356020611b456119fd836119b8565b82815260059290921b84018101918181019086841115611b6457600080fd5b8286015b84811015611a435780358352918301918301611b68565b60008060008060808587031215611b9557600080fd5b611b9e856118fe565b9350602085013567ffffffffffffffff80821115611bbb57600080fd5b611bc7888389016119dc565b94506040870135915080821115611bdd57600080fd5b611be988838901611b24565b93506060870135915080821115611bff57600080fd5b50611c0c87828801611b24565b91505092959194509250565b6020808252603a908201527f5265776172644469737472696275746f723a206f6e6c7920636f6d7074726f6c60408201527f6c65722063616e2063616c6c20746869732066756e6374696f6e000000000000606082015260800190565b634e487b7160e01b600052603260045260246000fd5b634e487b7160e01b600052601160045260246000fd5b6000600019821415611cb557611cb5611c8b565b5060010190565b600060208284031215611cce57600080fd5b5051919050565b600060208284031215611ce757600080fd5b81518015158114610e0057600080fd5b600060208083528351808285015260005b81811015611d2457858101830151858201604001528201611d08565b81811115611d36576000604083870101525b50601f01601f1916929092016040019392505050565b600063ffffffff83811690831681811015611d6957611d69611c8b565b039392505050565b6020808252602b908201527f496e697469616c697a61626c653a20636f6e7472616374206973206e6f74206960408201526a6e697469616c697a696e6760a81b606082015260800190565b600082821015611dce57611dce611c8b565b500390565b600082611df057634e487b7160e01b600052601260045260246000fd5b500490565b60008219821115611e0857611e08611c8b565b500190565b6000816000190483118215151615611e2757611e27611c8b565b50029056fea26469706673582212206c15ea513f09051aa008ac3ee90e53b1770d69dce7de20613c633d79a997073064736f6c634300080a0033",
  "devdoc": {
    "author": "Sonne Finance",
    "kind": "dev",
    "methods": {
      "owner()": {
        "details": "Returns the address of the current owner."
      },
      "renounceOwnership()": {
        "details": "Leaves the contract without owner. It will not be possible to call `onlyOwner` functions anymore. Can only be called by the current owner. NOTE: Renouncing ownership will leave the contract without an owner, thereby removing any functionality that is only available to the owner."
      },
      "transferOwnership(address)": {
        "details": "Transfers ownership of the contract to a new account (`newOwner`). Can only be called by the current owner."
      }
    },
    "title": "External Reward Distributor (version 1)",
    "version": 1
  },
  "userdoc": {
    "kind": "user",
    "methods": {
      "comptroller()": {
        "notice": "The comptroller that rewards are distributed to"
      },
      "getRewardTokens()": {
        "notice": "Getters "
      },
      "rewardAccountState(address,address)": {
        "notice": "The Reward state for each reward token for each account"
      },
      "rewardInitialIndex()": {
        "notice": "The initial reward index for a market"
      },
      "rewardMarketState(address,address)": {
        "notice": "The Reward state for each reward token for each market"
      },
      "rewardTokenExists(address)": {
        "notice": "Flag to check if reward token added before"
      },
      "rewardTokens(uint256)": {
        "notice": "Added reward tokens"
      }
    },
    "notice": "This contract is used to distribute rewards to users for supplying and borrowing assets. Each supply and borrow changing action from comptroller will trigger index update for each reward token.",
    "version": 1
  },
  "storageLayout": {
    "storage": [
      {
        "astId": 138,
        "contract": "contracts/ExternalRewardDistributor.sol:ExternalRewardDistributor",
        "label": "_initialized",
        "offset": 0,
        "slot": "0",
        "type": "t_uint8"
      },
      {
        "astId": 141,
        "contract": "contracts/ExternalRewardDistributor.sol:ExternalRewardDistributor",
        "label": "_initializing",
        "offset": 1,
        "slot": "0",
        "type": "t_bool"
      },
      {
        "astId": 625,
        "contract": "contracts/ExternalRewardDistributor.sol:ExternalRewardDistributor",
        "label": "__gap",
        "offset": 0,
        "slot": "1",
        "type": "t_array(t_uint256)50_storage"
      },
      {
        "astId": 10,
        "contract": "contracts/ExternalRewardDistributor.sol:ExternalRewardDistributor",
        "label": "_owner",
        "offset": 0,
        "slot": "51",
        "type": "t_address"
      },
      {
        "astId": 130,
        "contract": "contracts/ExternalRewardDistributor.sol:ExternalRewardDistributor",
        "label": "__gap",
        "offset": 0,
        "slot": "52",
        "type": "t_array(t_uint256)49_storage"
      },
      {
        "astId": 2443,
        "contract": "contracts/ExternalRewardDistributor.sol:ExternalRewardDistributor",
        "label": "comptroller",
        "offset": 0,
        "slot": "101",
        "type": "t_address"
      },
      {
        "astId": 2451,
        "contract": "contracts/ExternalRewardDistributor.sol:ExternalRewardDistributor",
        "label": "rewardMarketState",
        "offset": 0,
        "slot": "102",
        "type": "t_mapping(t_address,t_mapping(t_address,t_struct(RewardMarketState)2383_storage))"
      },
      {
        "astId": 2459,
        "contract": "contracts/ExternalRewardDistributor.sol:ExternalRewardDistributor",
        "label": "rewardAccountState",
        "offset": 0,
        "slot": "103",
        "type": "t_mapping(t_address,t_mapping(t_address,t_struct(RewardAccountState)2397_storage))"
      },
      {
        "astId": 2463,
        "contract": "contracts/ExternalRewardDistributor.sol:ExternalRewardDistributor",
        "label": "rewardTokens",
        "offset": 0,
        "slot": "104",
        "type": "t_array(t_address)dyn_storage"
      },
      {
        "astId": 2468,
        "contract": "contracts/ExternalRewardDistributor.sol:ExternalRewardDistributor",
        "label": "rewardTokenExists",
        "offset": 0,
        "slot": "105",
        "type": "t_mapping(t_address,t_bool)"
      }
    ],
    "types": {
      "t_address": {
        "encoding": "inplace",
        "label": "address",
        "numberOfBytes": "20"
      },
      "t_array(t_address)dyn_storage": {
        "base": "t_address",
        "encoding": "dynamic_array",
        "label": "address[]",
        "numberOfBytes": "32"
      },
      "t_array(t_uint256)49_storage": {
        "base": "t_uint256",
        "encoding": "inplace",
        "label": "uint256[49]",
        "numberOfBytes": "1568"
      },
      "t_array(t_uint256)50_storage": {
        "base": "t_uint256",
        "encoding": "inplace",
        "label": "uint256[50]",
        "numberOfBytes": "1600"
      },
      "t_bool": {
        "encoding": "inplace",
        "label": "bool",
        "numberOfBytes": "1"
      },
      "t_mapping(t_address,t_bool)": {
        "encoding": "mapping",
        "key": "t_address",
        "label": "mapping(address => bool)",
        "numberOfBytes": "32",
        "value": "t_bool"
      },
      "t_mapping(t_address,t_mapping(t_address,t_struct(RewardAccountState)2397_storage))": {
        "encoding": "mapping",
        "key": "t_address",
        "label": "mapping(address => mapping(address => struct RewardAccountState))",
        "numberOfBytes": "32",
        "value": "t_mapping(t_address,t_struct(RewardAccountState)2397_storage)"
      },
      "t_mapping(t_address,t_mapping(t_address,t_struct(RewardMarketState)2383_storage))": {
        "encoding": "mapping",
        "key": "t_address",
        "label": "mapping(address => mapping(address => struct RewardMarketState))",
        "numberOfBytes": "32",
        "value": "t_mapping(t_address,t_struct(RewardMarketState)2383_storage)"
      },
      "t_mapping(t_address,t_struct(RewardAccountState)2397_storage)": {
        "encoding": "mapping",
        "key": "t_address",
        "label": "mapping(address => struct RewardAccountState)",
        "numberOfBytes": "32",
        "value": "t_struct(RewardAccountState)2397_storage"
      },
      "t_mapping(t_address,t_struct(RewardMarketState)2383_storage)": {
        "encoding": "mapping",
        "key": "t_address",
        "label": "mapping(address => struct RewardMarketState)",
        "numberOfBytes": "32",
        "value": "t_struct(RewardMarketState)2383_storage"
      },
      "t_mapping(t_address,t_uint256)": {
        "encoding": "mapping",
        "key": "t_address",
        "label": "mapping(address => uint256)",
        "numberOfBytes": "32",
        "value": "t_uint256"
      },
      "t_struct(RewardAccountState)2397_storage": {
        "encoding": "inplace",
        "label": "struct RewardAccountState",
        "members": [
          {
            "astId": 2388,
            "contract": "contracts/ExternalRewardDistributor.sol:ExternalRewardDistributor",
            "label": "supplierIndex",
            "offset": 0,
            "slot": "0",
            "type": "t_mapping(t_address,t_uint256)"
          },
          {
            "astId": 2393,
            "contract": "contracts/ExternalRewardDistributor.sol:ExternalRewardDistributor",
            "label": "borrowerIndex",
            "offset": 0,
            "slot": "1",
            "type": "t_mapping(t_address,t_uint256)"
          },
          {
            "astId": 2396,
            "contract": "contracts/ExternalRewardDistributor.sol:ExternalRewardDistributor",
            "label": "rewardAccrued",
            "offset": 0,
            "slot": "2",
            "type": "t_uint256"
          }
        ],
        "numberOfBytes": "96"
      },
      "t_struct(RewardMarketState)2383_storage": {
        "encoding": "inplace",
        "label": "struct RewardMarketState",
        "members": [
          {
            "astId": 2367,
            "contract": "contracts/ExternalRewardDistributor.sol:ExternalRewardDistributor",
            "label": "supplySpeed",
            "offset": 0,
            "slot": "0",
            "type": "t_uint256"
          },
          {
            "astId": 2370,
            "contract": "contracts/ExternalRewardDistributor.sol:ExternalRewardDistributor",
            "label": "supplyIndex",
            "offset": 0,
            "slot": "1",
            "type": "t_uint224"
          },
          {
            "astId": 2373,
            "contract": "contracts/ExternalRewardDistributor.sol:ExternalRewardDistributor",
            "label": "supplyBlock",
            "offset": 28,
            "slot": "1",
            "type": "t_uint32"
          },
          {
            "astId": 2376,
            "contract": "contracts/ExternalRewardDistributor.sol:ExternalRewardDistributor",
            "label": "borrowSpeed",
            "offset": 0,
            "slot": "2",
            "type": "t_uint256"
          },
          {
            "astId": 2379,
            "contract": "contracts/ExternalRewardDistributor.sol:ExternalRewardDistributor",
            "label": "borrowIndex",
            "offset": 0,
            "slot": "3",
            "type": "t_uint224"
          },
          {
            "astId": 2382,
            "contract": "contracts/ExternalRewardDistributor.sol:ExternalRewardDistributor",
            "label": "borrowBlock",
            "offset": 28,
            "slot": "3",
            "type": "t_uint32"
          }
        ],
        "numberOfBytes": "128"
      },
      "t_uint224": {
        "encoding": "inplace",
        "label": "uint224",
        "numberOfBytes": "28"
      },
      "t_uint256": {
        "encoding": "inplace",
        "label": "uint256",
        "numberOfBytes": "32"
      },
      "t_uint32": {
        "encoding": "inplace",
        "label": "uint32",
        "numberOfBytes": "4"
      },
      "t_uint8": {
        "encoding": "inplace",
        "label": "uint8",
        "numberOfBytes": "1"
      }
    }
  }
}