{
  "address": "0x18b4481d536056a75C85871F5c7e2F5254B9f3AB",
  "abi": [
    {
      "anonymous": false,
      "inputs": [
        {
          "indexed": true,
          "internalType": "address",
          "name": "rewardToken",
          "type": "address"
        },
        {
          "indexed": true,
          "internalType": "address",
          "name": "cToken",
          "type": "address"
        },
        {
          "indexed": false,
          "internalType": "uint256",
          "name": "borrowSpeed",
          "type": "uint256"
        }
      ],
      "name": "BorrowSpeedUpdated",
      "type": "event"
    },
    {
      "anonymous": false,
      "inputs": [
        {
          "indexed": false,
          "internalType": "uint8",
          "name": "version",
          "type": "uint8"
        }
      ],
      "name": "Initialized",
      "type": "event"
    },
    {
      "anonymous": false,
      "inputs": [
        {
          "indexed": true,
          "internalType": "address",
          "name": "previousOwner",
          "type": "address"
        },
        {
          "indexed": true,
          "internalType": "address",
          "name": "newOwner",
          "type": "address"
        }
      ],
      "name": "OwnershipTransferred",
      "type": "event"
    },
    {
      "anonymous": false,
      "inputs": [
        {
          "indexed": true,
          "internalType": "address",
          "name": "rewardToken",
          "type": "address"
        },
        {
          "indexed": true,
          "internalType": "address",
          "name": "user",
          "type": "address"
        },
        {
          "indexed": false,
          "internalType": "uint256",
          "name": "amount",
          "type": "uint256"
        }
      ],
      "name": "RewardAccrued",
      "type": "event"
    },
    {
      "anonymous": false,
      "inputs": [
        {
          "indexed": true,
          "internalType": "address",
          "name": "rewardToken",
          "type": "address"
        },
        {
          "indexed": true,
          "internalType": "address",
          "name": "user",
          "type": "address"
        },
        {
          "indexed": false,
          "internalType": "uint256",
          "name": "amount",
          "type": "uint256"
        }
      ],
      "name": "RewardDistributed",
      "type": "event"
    },
    {
      "anonymous": false,
      "inputs": [
        {
          "indexed": true,
          "internalType": "address",
          "name": "rewardToken",
          "type": "address"
        },
        {
          "indexed": true,
          "internalType": "address",
          "name": "cToken",
          "type": "address"
        },
        {
          "indexed": false,
          "internalType": "uint256",
          "name": "supplySpeed",
          "type": "uint256"
        }
      ],
      "name": "SupplySpeedUpdated",
      "type": "event"
    },
    {
      "inputs": [
        {
          "internalType": "address",
          "name": "token",
          "type": "address"
        },
        {
          "internalType": "address",
          "name": "user",
          "type": "address"
        },
        {
          "internalType": "uint256",
          "name": "amount",
          "type": "uint256"
        }
      ],
      "name": "_grantReward",
      "outputs": [],
      "stateMutability": "nonpayable",
      "type": "function"
    },
    {
      "inputs": [
        {
          "internalType": "address",
          "name": "rewardToken_",
          "type": "address"
        },
        {
          "internalType": "address[]",
          "name": "cTokens",
          "type": "address[]"
        },
        {
          "internalType": "uint256[]",
          "name": "supplySpeeds",
          "type": "uint256[]"
        },
        {
          "internalType": "uint256[]",
          "name": "borrowSpeeds",
          "type": "uint256[]"
        }
      ],
      "name": "_updateRewardSpeeds",
      "outputs": [],
      "stateMutability": "nonpayable",
      "type": "function"
    },
    {
      "inputs": [
        {
          "internalType": "address",
          "name": "rewardToken_",
          "type": "address"
        }
      ],
      "name": "_whitelistToken",
      "outputs": [],
      "stateMutability": "nonpayable",
      "type": "function"
    },
    {
      "inputs": [
        {
          "internalType": "address[]",
          "name": "holders",
          "type": "address[]"
        }
      ],
      "name": "claim",
      "outputs": [],
      "stateMutability": "nonpayable",
      "type": "function"
    },
    {
      "inputs": [],
      "name": "comptroller",
      "outputs": [
        {
          "internalType": "address",
          "name": "",
          "type": "address"
        }
      ],
      "stateMutability": "view",
      "type": "function"
    },
    {
      "inputs": [],
      "name": "getRewardTokens",
      "outputs": [
        {
          "internalType": "address[]",
          "name": "",
          "type": "address[]"
        }
      ],
      "stateMutability": "view",
      "type": "function"
    },
    {
      "inputs": [],
      "name": "getTick",
      "outputs": [
        {
          "internalType": "uint256",
          "name": "",
          "type": "uint256"
        }
      ],
      "stateMutability": "view",
      "type": "function"
    },
    {
      "inputs": [
        {
          "internalType": "address",
          "name": "comptroller_",
          "type": "address"
        }
      ],
      "name": "initialize",
      "outputs": [],
      "stateMutability": "nonpayable",
      "type": "function"
    },
    {
      "inputs": [
        {
          "internalType": "address",
          "name": "cToken",
          "type": "address"
        }
      ],
      "name": "notifyBorrowIndex",
      "outputs": [],
      "stateMutability": "nonpayable",
      "type": "function"
    },
    {
      "inputs": [
        {
          "internalType": "address",
          "name": "cToken",
          "type": "address"
        },
        {
          "internalType": "address",
          "name": "borrower",
          "type": "address"
        }
      ],
      "name": "notifyBorrower",
      "outputs": [],
      "stateMutability": "nonpayable",
      "type": "function"
    },
    {
      "inputs": [
        {
          "internalType": "address",
          "name": "cToken",
          "type": "address"
        },
        {
          "internalType": "address",
          "name": "supplier",
          "type": "address"
        }
      ],
      "name": "notifySupplier",
      "outputs": [],
      "stateMutability": "nonpayable",
      "type": "function"
    },
    {
      "inputs": [
        {
          "internalType": "address",
          "name": "cToken",
          "type": "address"
        }
      ],
      "name": "notifySupplyIndex",
      "outputs": [],
      "stateMutability": "nonpayable",
      "type": "function"
    },
    {
      "inputs": [],
      "name": "owner",
      "outputs": [
        {
          "internalType": "address",
          "name": "",
          "type": "address"
        }
      ],
      "stateMutability": "view",
      "type": "function"
    },
    {
      "inputs": [],
      "name": "renounceOwnership",
      "outputs": [],
      "stateMutability": "nonpayable",
      "type": "function"
    },
    {
      "inputs": [
        {
          "internalType": "address",
          "name": "",
          "type": "address"
        },
        {
          "internalType": "address",
          "name": "",
          "type": "address"
        }
      ],
      "name": "rewardAccountState",
      "outputs": [
        {
          "internalType": "uint256",
          "name": "rewardAccrued",
          "type": "uint256"
        }
      ],
      "stateMutability": "view",
      "type": "function"
    },
    {
      "inputs": [],
      "name": "rewardInitialIndex",
      "outputs": [
        {
          "internalType": "uint256",
          "name": "",
          "type": "uint256"
        }
      ],
      "stateMutability": "view",
      "type": "function"
    },
    {
      "inputs": [
        {
          "internalType": "address",
          "name": "",
          "type": "address"
        },
        {
          "internalType": "address",
          "name": "",
          "type": "address"
        }
      ],
      "name": "rewardMarketState",
      "outputs": [
        {
          "internalType": "uint256",
          "name": "supplySpeed",
          "type": "uint256"
        },
        {
          "internalType": "uint256",
          "name": "supplyIndex",
          "type": "uint256"
        },
        {
          "internalType": "uint256",
          "name": "supplyTick",
          "type": "uint256"
        },
        {
          "internalType": "uint256",
          "name": "borrowSpeed",
          "type": "uint256"
        },
        {
          "internalType": "uint256",
          "name": "borrowIndex",
          "type": "uint256"
        },
        {
          "internalType": "uint256",
          "name": "borrowTick",
          "type": "uint256"
        }
      ],
      "stateMutability": "view",
      "type": "function"
    },
    {
      "inputs": [
        {
          "internalType": "address",
          "name": "",
          "type": "address"
        }
      ],
      "name": "rewardTokenExists",
      "outputs": [
        {
          "internalType": "bool",
          "name": "",
          "type": "bool"
        }
      ],
      "stateMutability": "view",
      "type": "function"
    },
    {
      "inputs": [
        {
          "internalType": "uint256",
          "name": "",
          "type": "uint256"
        }
      ],
      "name": "rewardTokens",
      "outputs": [
        {
          "internalType": "address",
          "name": "",
          "type": "address"
        }
      ],
      "stateMutability": "view",
      "type": "function"
    },
    {
      "inputs": [
        {
          "internalType": "address",
          "name": "newOwner",
          "type": "address"
        }
      ],
      "name": "transferOwnership",
      "outputs": [],
      "stateMutability": "nonpayable",
      "type": "function"
    }
  ],
  "transactionHash": "0x7ea843af0c6281951cd73942a375bf1a8d0ce0060c4bb1b114b1c02f5df01ede",
  "args": [],
  "numDeployments": 1,
  "solcInputHash": "3b6ad6593daec0f39de3643ba449a186",
  "bytecode": "0x608060405234801561001057600080fd5b50611b61806100206000396000f3fe608060405234801561001057600080fd5b506004361061012c5760003560e01c8063831e8dec116100ad578063df8ad81411610071578063df8ad81414610315578063e86b2fbe1461031b578063eb8f28061461032e578063f2fde38b14610341578063f49dc6b61461035457600080fd5b8063831e8dec1461029b5780638da5cb5b146102c95780638daa0acb146102da578063c4d66de8146102ed578063c4f59f9b1461030057600080fd5b80635ce65fe9116100f45780635ce65fe91461021f5780635fe3b5671461023257806366f91a241461025d578063715018a6146102805780637bb7bed11461028857600080fd5b8063246467e8146101315780632e4a5d6014610146578063318d9e5d1461017e57806332894a6d1461019157806345a49d3c1461020c575b600080fd5b61014461013f366004611693565b610367565b005b6101696101543660046116cf565b60696020526000908152604090205460ff1681565b60405190151581526020015b60405180910390f35b61014461018c3660046117c7565b61040a565b6101df61019f366004611804565b6066602090815260009283526040808420909152908252902080546001820154600283015460038401546004850154600590950154939492939192909186565b604080519687526020870195909552938501929092526060840152608083015260a082015260c001610175565b61014461021a366004611804565b61045e565b61014461022d3660046116cf565b6104de565b606554610245906001600160a01b031681565b6040516001600160a01b039091168152602001610175565b6102726a0c097ce7bc90715b34b9f160241b81565b604051908152602001610175565b610144610558565b610245610296366004611837565b61056c565b6102726102a9366004611804565b606760209081526000928352604080842090915290825290206002015481565b6033546001600160a01b0316610245565b6101446102e83660046116cf565b610596565b6101446102fb3660046116cf565b6106fa565b610308610826565b6040516101759190611850565b42610272565b6101446103293660046116cf565b610888565b61014461033c366004611804565b610902565b61014461034f3660046116cf565b61097d565b6101446103623660046118f8565b6109f6565b61036f610bd7565b6001600160a01b03831660009081526069602052604090205460ff166103f95760405162461bcd60e51b815260206004820152603460248201527f5265776172644469737472696275746f723a206772616e7420726577617264206044820152731d1bdad95b88191bd95cc81b9bdd08195e1a5cdd60621b60648201526084015b60405180910390fd5b610404838383610c31565b50505050565b60005b60685481101561045a576104486068828154811061042d5761042d611991565b6000918252602090912001546001600160a01b031683610d3f565b80610452816119bd565b91505061040d565b5050565b6065546001600160a01b031633146104885760405162461bcd60e51b81526004016103f0906119d8565b60005b6068548110156104d9576104c7606882815481106104ab576104ab611991565b6000918252602090912001546001600160a01b03168484610de3565b806104d1816119bd565b91505061048b565b505050565b6065546001600160a01b031633146105085760405162461bcd60e51b81526004016103f0906119d8565b60005b60685481101561045a576105466068828154811061052b5761052b611991565b6000918252602090912001546001600160a01b031683610f26565b80610550816119bd565b91505061050b565b610560610bd7565b61056a60006110ca565b565b6068818154811061057c57600080fd5b6000918252602090912001546001600160a01b0316905081565b61059e610bd7565b6001600160a01b0381166106135760405162461bcd60e51b815260206004820152603660248201527f5265776172644469737472696275746f723a2072657761726420746f6b656e2060448201527563616e6e6f74206265207a65726f206164647265737360501b60648201526084016103f0565b6001600160a01b03811660009081526069602052604090205460ff16156106935760405162461bcd60e51b815260206004820152602e60248201527f5265776172644469737472696275746f723a2072657761726420746f6b656e2060448201526d616c72656164792065786973747360901b60648201526084016103f0565b6068805460018181019092557fa2153420d844928b4421650203c77babc8b33d7f2e7b450e2966db0c220977530180546001600160a01b039093166001600160a01b031990931683179055600091825260696020526040909120805460ff19169091179055565b600054610100900460ff161580801561071a5750600054600160ff909116105b806107345750303b158015610734575060005460ff166001145b6107975760405162461bcd60e51b815260206004820152602e60248201527f496e697469616c697a61626c653a20636f6e747261637420697320616c72656160448201526d191e481a5b9a5d1a585b1a5e995960921b60648201526084016103f0565b6000805460ff1916600117905580156107ba576000805461ff0019166101001790555b6107c261111c565b606580546001600160a01b0319166001600160a01b038416179055801561045a576000805461ff0019169055604051600181527f7f26b83ff96e1f2b6a682f133852f6798a09c465da95921460cefb38474024989060200160405180910390a15050565b6060606880548060200260200160405190810160405280929190818152602001828054801561087e57602002820191906000526020600020905b81546001600160a01b03168152600190910190602001808311610860575b5050505050905090565b6065546001600160a01b031633146108b25760405162461bcd60e51b81526004016103f0906119d8565b60005b60685481101561045a576108f0606882815481106108d5576108d5611991565b6000918252602090912001546001600160a01b03168361114b565b806108fa816119bd565b9150506108b5565b6065546001600160a01b0316331461092c5760405162461bcd60e51b81526004016103f0906119d8565b60005b6068548110156104d95761096b6068828154811061094f5761094f611991565b6000918252602090912001546001600160a01b0316848461126d565b80610975816119bd565b91505061092f565b610985610bd7565b6001600160a01b0381166109ea5760405162461bcd60e51b815260206004820152602660248201527f4f776e61626c653a206e6577206f776e657220697320746865207a65726f206160448201526564647265737360d01b60648201526084016103f0565b6109f3816110ca565b50565b6109fe610bd7565b6001600160a01b03841660009081526069602052604090205460ff16610a7d5760405162461bcd60e51b815260206004820152602e60248201527f5265776172644469737472696275746f723a2072657761726420746f6b656e2060448201526d191bd95cc81b9bdd08195e1a5cdd60921b60648201526084016103f0565b8151835114610aec5760405162461bcd60e51b815260206004820152603560248201527f5265776172644469737472696275746f723a20737570706c79207370656564206044820152740c2e4e4c2f240d8cadccee8d040dad2e6dac2e8c6d605b1b60648201526084016103f0565b8051835114610b5b5760405162461bcd60e51b815260206004820152603560248201527f5265776172644469737472696275746f723a20626f72726f77207370656564206044820152740c2e4e4c2f240d8cadccee8d040dad2e6dac2e8c6d605b1b60648201526084016103f0565b60005b8351811015610bd057610bbe85858381518110610b7d57610b7d611991565b6020026020010151858481518110610b9757610b97611991565b6020026020010151858581518110610bb157610bb1611991565b6020026020010151611434565b80610bc8816119bd565b915050610b5e565b5050505050565b6033546001600160a01b0316331461056a5760405162461bcd60e51b815260206004820181905260248201527f4f776e61626c653a2063616c6c6572206973206e6f7420746865206f776e657260448201526064016103f0565b6040516370a0823160e01b815230600482015260009081906001600160a01b038616906370a0823190602401602060405180830381865afa158015610c7a573d6000803e3d6000fd5b505050506040513d601f19601f82011682018060405250810190610c9e9190611a35565b9050600083118015610cb05750808311155b15610d335760405163a9059cbb60e01b81526001600160a01b0385811660048301526024820185905286169063a9059cbb906044016020604051808303816000875af1158015610d04573d6000803e3d6000fd5b505050506040513d601f19601f82011682018060405250810190610d289190611a4e565b506000915050610d38565b829150505b9392505050565b60005b81518110156104d9576001600160a01b038316600090815260676020526040812083518290859085908110610d7957610d79611991565b60200260200101516001600160a01b03166001600160a01b031681526020019081526020016000209050610dcb84848481518110610db957610db9611991565b60200260200101518360020154610c31565b60029091015580610ddb816119bd565b915050610d42565b6001600160a01b0380841660008181526066602090815260408083208786168085529083528184209484526067835281842095871684529482528083206001850154958452918290529091208054908490559192909180158015610e5557506a0c097ce7bc90715b34b9f160241b8210155b15610e6b57506a0c097ce7bc90715b34b9f160241b5b60006040518060200160405280610e828585611560565b90526040516370a0823160e01b81526001600160a01b0388811660048301529192506000918916906370a0823190602401602060405180830381865afa158015610ed0573d6000803e3d6000fd5b505050506040513d601f19601f82011682018060405250810190610ef49190611a35565b90506000610f02828461156c565b9050610f12866002015482611595565b866002018190555050505050505050505050565b60006040518060200160405280836001600160a01b031663aa5af0fd6040518163ffffffff1660e01b8152600401602060405180830381865afa158015610f71573d6000803e3d6000fd5b505050506040513d601f19601f82011682018060405250810190610f959190611a35565b90526001600160a01b0384811660009081526066602090815260408083209387168352929052206005810154919250904290811115610bd0576003820154156110be576000826005015482610fea9190611a70565b90506000611059866001600160a01b03166347bd37186040518163ffffffff1660e01b8152600401602060405180830381865afa15801561102f573d6000803e3d6000fd5b505050506040513d601f19601f820116820180604052508101906110539190611a35565b866115a1565b9050600061106b8386600301546115bf565b9050600080831161108b5760405180602001604052806000815250611095565b61109582846115cb565b90506110b3604051806020016040528088600401548152508261160f565b516004870155505050505b60059190910155505050565b603380546001600160a01b038381166001600160a01b0319831681179093556040519116919082907f8be0079c531659141344cd1fd0a4f28419497f9722a3daafe3b4186f6b6457e090600090a35050565b600054610100900460ff166111435760405162461bcd60e51b81526004016103f090611a87565b61056a61163b565b6001600160a01b03828116600090815260666020908152604080832093851683529290522060028101544290811115610404578154156112625760008260020154826111979190611a70565b90506000846001600160a01b03166318160ddd6040518163ffffffff1660e01b8152600401602060405180830381865afa1580156111d9573d6000803e3d6000fd5b505050506040513d601f19601f820116820180604052508101906111fd9190611a35565b9050600061120f8386600001546115bf565b9050600080831161122f5760405180602001604052806000815250611239565b61123982846115cb565b9050611257604051806020016040528088600101548152508261160f565b516001870155505050505b600291909101555050565b60006040518060200160405280846001600160a01b031663aa5af0fd6040518163ffffffff1660e01b8152600401602060405180830381865afa1580156112b8573d6000803e3d6000fd5b505050506040513d601f19601f820116820180604052508101906112dc9190611a35565b90526001600160a01b03808616600081815260666020908152604080832089861680855290835281842094845260678352818420958916845294825280832060048501549584526001810190925290912080549084905593945090929091908015801561135757506a0c097ce7bc90715b34b9f160241b8210155b1561136d57506a0c097ce7bc90715b34b9f160241b5b600060405180602001604052806113848585611560565b90526040516395dd919360e01b81526001600160a01b03898116600483015291925060009161140191908b16906395dd919390602401602060405180830381865afa1580156113d7573d6000803e3d6000fd5b505050506040513d601f19601f820116820180604052508101906113fb9190611a35565b886115a1565b9050600061140f828461156c565b905061141f866002015482611595565b86600201819055505050505050505050505050565b6001600160a01b038085166000908152606660209081526040808320938716835292905220805483146114d057600181015461147f576a0c097ce7bc90715b34b9f160241b60018201555b611489858561114b565b8281556040518381526001600160a01b0385811691908716907f61918eb908e35e96d460dc030b7c4f6448ac64f1383759571b9c7cab50efd0469060200160405180910390a35b81816003015414610bd05760048101546114f9576a0c097ce7bc90715b34b9f160241b60048201555b6115038585610f26565b818160030181905550836001600160a01b0316856001600160a01b03167f13b9c4bac6e50afba9701545614343a5e29bc815d483928198270e878c42eaf98460405161155191815260200190565b60405180910390a35050505050565b6000610d388284611a70565b60006a0c097ce7bc90715b34b9f160241b61158b8484600001516115bf565b610d389190611ad2565b6000610d388284611af4565b6000610d386115b884670de0b6b3a76400006115bf565b835161166b565b6000610d388284611b0c565b6040805160208101909152600081526040518060200160405280611606611600866a0c097ce7bc90715b34b9f160241b6115bf565b8561166b565b90529392505050565b604080516020810190915260008152604051806020016040528061160685600001518560000151611595565b600054610100900460ff166116625760405162461bcd60e51b81526004016103f090611a87565b61056a336110ca565b6000610d388284611ad2565b80356001600160a01b038116811461168e57600080fd5b919050565b6000806000606084860312156116a857600080fd5b6116b184611677565b92506116bf60208501611677565b9150604084013590509250925092565b6000602082840312156116e157600080fd5b610d3882611677565b634e487b7160e01b600052604160045260246000fd5b604051601f8201601f1916810167ffffffffffffffff81118282101715611729576117296116ea565b604052919050565b600067ffffffffffffffff82111561174b5761174b6116ea565b5060051b60200190565b600082601f83011261176657600080fd5b8135602061177b61177683611731565b611700565b82815260059290921b8401810191818101908684111561179a57600080fd5b8286015b848110156117bc576117af81611677565b835291830191830161179e565b509695505050505050565b6000602082840312156117d957600080fd5b813567ffffffffffffffff8111156117f057600080fd5b6117fc84828501611755565b949350505050565b6000806040838503121561181757600080fd5b61182083611677565b915061182e60208401611677565b90509250929050565b60006020828403121561184957600080fd5b5035919050565b6020808252825182820181905260009190848201906040850190845b818110156118915783516001600160a01b03168352928401929184019160010161186c565b50909695505050505050565b600082601f8301126118ae57600080fd5b813560206118be61177683611731565b82815260059290921b840181019181810190868411156118dd57600080fd5b8286015b848110156117bc57803583529183019183016118e1565b6000806000806080858703121561190e57600080fd5b61191785611677565b9350602085013567ffffffffffffffff8082111561193457600080fd5b61194088838901611755565b9450604087013591508082111561195657600080fd5b6119628883890161189d565b9350606087013591508082111561197857600080fd5b506119858782880161189d565b91505092959194509250565b634e487b7160e01b600052603260045260246000fd5b634e487b7160e01b600052601160045260246000fd5b60006000198214156119d1576119d16119a7565b5060010190565b6020808252603a908201527f5265776172644469737472696275746f723a206f6e6c7920636f6d7074726f6c60408201527f6c65722063616e2063616c6c20746869732066756e6374696f6e000000000000606082015260800190565b600060208284031215611a4757600080fd5b5051919050565b600060208284031215611a6057600080fd5b81518015158114610d3857600080fd5b600082821015611a8257611a826119a7565b500390565b6020808252602b908201527f496e697469616c697a61626c653a20636f6e7472616374206973206e6f74206960408201526a6e697469616c697a696e6760a81b606082015260800190565b600082611aef57634e487b7160e01b600052601260045260246000fd5b500490565b60008219821115611b0757611b076119a7565b500190565b6000816000190483118215151615611b2657611b266119a7565b50029056fea2646970667358221220151c17d11f398244b3b3b557d179e5c85a0ba0e153ec50168b388b96928a011564736f6c634300080a0033",
  "devdoc": {
    "author": "Sonne Finance",
    "kind": "dev",
    "methods": {
      "owner()": {
        "details": "Returns the address of the current owner."
      },
      "renounceOwnership()": {
        "details": "Leaves the contract without owner. It will not be possible to call `onlyOwner` functions anymore. Can only be called by the current owner. NOTE: Renouncing ownership will leave the contract without an owner, thereby removing any functionality that is only available to the owner."
      },
      "transferOwnership(address)": {
        "details": "Transfers ownership of the contract to a new account (`newOwner`). Can only be called by the current owner."
      }
    },
    "title": "Reward Distributor (version 1)",
    "version": 1
  },
  "userdoc": {
    "kind": "user",
    "methods": {
      "comptroller()": {
        "notice": "The comptroller that rewards are distributed to"
      },
      "getRewardTokens()": {
        "notice": "Getters "
      },
      "rewardAccountState(address,address)": {
        "notice": "The Reward state for each reward token for each account"
      },
      "rewardInitialIndex()": {
        "notice": "The initial reward index for a market"
      },
      "rewardMarketState(address,address)": {
        "notice": "The Reward state for each reward token for each market"
      },
      "rewardTokenExists(address)": {
        "notice": "Flag to check if reward token added before"
      },
      "rewardTokens(uint256)": {
        "notice": "Added reward tokens"
      }
    },
    "notice": "This contract is used to distribute rewards to users for supplying and borrowing assets. Each supply and borrow changing action from comptroller will trigger index update for each reward token.",
    "version": 1
  },
  "storageLayout": {
    "storage": [
      {
        "astId": 138,
        "contract": "contracts/RewardDistributor.sol:RewardDistributor",
        "label": "_initialized",
        "offset": 0,
        "slot": "0",
        "type": "t_uint8"
      },
      {
        "astId": 141,
        "contract": "contracts/RewardDistributor.sol:RewardDistributor",
        "label": "_initializing",
        "offset": 1,
        "slot": "0",
        "type": "t_bool"
      },
      {
        "astId": 625,
        "contract": "contracts/RewardDistributor.sol:RewardDistributor",
        "label": "__gap",
        "offset": 0,
        "slot": "1",
        "type": "t_array(t_uint256)50_storage"
      },
      {
        "astId": 10,
        "contract": "contracts/RewardDistributor.sol:RewardDistributor",
        "label": "_owner",
        "offset": 0,
        "slot": "51",
        "type": "t_address"
      },
      {
        "astId": 130,
        "contract": "contracts/RewardDistributor.sol:RewardDistributor",
        "label": "__gap",
        "offset": 0,
        "slot": "52",
        "type": "t_array(t_uint256)49_storage"
      },
      {
        "astId": 10480,
        "contract": "contracts/RewardDistributor.sol:RewardDistributor",
        "label": "comptroller",
        "offset": 0,
        "slot": "101",
        "type": "t_address"
      },
      {
        "astId": 10488,
        "contract": "contracts/RewardDistributor.sol:RewardDistributor",
        "label": "rewardMarketState",
        "offset": 0,
        "slot": "102",
        "type": "t_mapping(t_address,t_mapping(t_address,t_struct(RewardMarketState)10420_storage))"
      },
      {
        "astId": 10496,
        "contract": "contracts/RewardDistributor.sol:RewardDistributor",
        "label": "rewardAccountState",
        "offset": 0,
        "slot": "103",
        "type": "t_mapping(t_address,t_mapping(t_address,t_struct(RewardAccountState)10434_storage))"
      },
      {
        "astId": 10500,
        "contract": "contracts/RewardDistributor.sol:RewardDistributor",
        "label": "rewardTokens",
        "offset": 0,
        "slot": "104",
        "type": "t_array(t_address)dyn_storage"
      },
      {
        "astId": 10505,
        "contract": "contracts/RewardDistributor.sol:RewardDistributor",
        "label": "rewardTokenExists",
        "offset": 0,
        "slot": "105",
        "type": "t_mapping(t_address,t_bool)"
      }
    ],
    "types": {
      "t_address": {
        "encoding": "inplace",
        "label": "address",
        "numberOfBytes": "20"
      },
      "t_array(t_address)dyn_storage": {
        "base": "t_address",
        "encoding": "dynamic_array",
        "label": "address[]",
        "numberOfBytes": "32"
      },
      "t_array(t_uint256)49_storage": {
        "base": "t_uint256",
        "encoding": "inplace",
        "label": "uint256[49]",
        "numberOfBytes": "1568"
      },
      "t_array(t_uint256)50_storage": {
        "base": "t_uint256",
        "encoding": "inplace",
        "label": "uint256[50]",
        "numberOfBytes": "1600"
      },
      "t_bool": {
        "encoding": "inplace",
        "label": "bool",
        "numberOfBytes": "1"
      },
      "t_mapping(t_address,t_bool)": {
        "encoding": "mapping",
        "key": "t_address",
        "label": "mapping(address => bool)",
        "numberOfBytes": "32",
        "value": "t_bool"
      },
      "t_mapping(t_address,t_mapping(t_address,t_struct(RewardAccountState)10434_storage))": {
        "encoding": "mapping",
        "key": "t_address",
        "label": "mapping(address => mapping(address => struct RewardAccountState))",
        "numberOfBytes": "32",
        "value": "t_mapping(t_address,t_struct(RewardAccountState)10434_storage)"
      },
      "t_mapping(t_address,t_mapping(t_address,t_struct(RewardMarketState)10420_storage))": {
        "encoding": "mapping",
        "key": "t_address",
        "label": "mapping(address => mapping(address => struct RewardMarketState))",
        "numberOfBytes": "32",
        "value": "t_mapping(t_address,t_struct(RewardMarketState)10420_storage)"
      },
      "t_mapping(t_address,t_struct(RewardAccountState)10434_storage)": {
        "encoding": "mapping",
        "key": "t_address",
        "label": "mapping(address => struct RewardAccountState)",
        "numberOfBytes": "32",
        "value": "t_struct(RewardAccountState)10434_storage"
      },
      "t_mapping(t_address,t_struct(RewardMarketState)10420_storage)": {
        "encoding": "mapping",
        "key": "t_address",
        "label": "mapping(address => struct RewardMarketState)",
        "numberOfBytes": "32",
        "value": "t_struct(RewardMarketState)10420_storage"
      },
      "t_mapping(t_address,t_uint256)": {
        "encoding": "mapping",
        "key": "t_address",
        "label": "mapping(address => uint256)",
        "numberOfBytes": "32",
        "value": "t_uint256"
      },
      "t_struct(RewardAccountState)10434_storage": {
        "encoding": "inplace",
        "label": "struct RewardAccountState",
        "members": [
          {
            "astId": 10425,
            "contract": "contracts/RewardDistributor.sol:RewardDistributor",
            "label": "supplierIndex",
            "offset": 0,
            "slot": "0",
            "type": "t_mapping(t_address,t_uint256)"
          },
          {
            "astId": 10430,
            "contract": "contracts/RewardDistributor.sol:RewardDistributor",
            "label": "borrowerIndex",
            "offset": 0,
            "slot": "1",
            "type": "t_mapping(t_address,t_uint256)"
          },
          {
            "astId": 10433,
            "contract": "contracts/RewardDistributor.sol:RewardDistributor",
            "label": "rewardAccrued",
            "offset": 0,
            "slot": "2",
            "type": "t_uint256"
          }
        ],
        "numberOfBytes": "96"
      },
      "t_struct(RewardMarketState)10420_storage": {
        "encoding": "inplace",
        "label": "struct RewardMarketState",
        "members": [
          {
            "astId": 10404,
            "contract": "contracts/RewardDistributor.sol:RewardDistributor",
            "label": "supplySpeed",
            "offset": 0,
            "slot": "0",
            "type": "t_uint256"
          },
          {
            "astId": 10407,
            "contract": "contracts/RewardDistributor.sol:RewardDistributor",
            "label": "supplyIndex",
            "offset": 0,
            "slot": "1",
            "type": "t_uint256"
          },
          {
            "astId": 10410,
            "contract": "contracts/RewardDistributor.sol:RewardDistributor",
            "label": "supplyTick",
            "offset": 0,
            "slot": "2",
            "type": "t_uint256"
          },
          {
            "astId": 10413,
            "contract": "contracts/RewardDistributor.sol:RewardDistributor",
            "label": "borrowSpeed",
            "offset": 0,
            "slot": "3",
            "type": "t_uint256"
          },
          {
            "astId": 10416,
            "contract": "contracts/RewardDistributor.sol:RewardDistributor",
            "label": "borrowIndex",
            "offset": 0,
            "slot": "4",
            "type": "t_uint256"
          },
          {
            "astId": 10419,
            "contract": "contracts/RewardDistributor.sol:RewardDistributor",
            "label": "borrowTick",
            "offset": 0,
            "slot": "5",
            "type": "t_uint256"
          }
        ],
        "numberOfBytes": "192"
      },
      "t_uint256": {
        "encoding": "inplace",
        "label": "uint256",
        "numberOfBytes": "32"
      },
      "t_uint8": {
        "encoding": "inplace",
        "label": "uint8",
        "numberOfBytes": "1"
      }
    }
  }
}