{
  "address": "0x9B8439d6de7c546b29B7927F110908da52171CFB",
  "abi": [
    {
      "inputs": [
        {
          "internalType": "string[]",
          "name": "symbols_",
          "type": "string[]"
        },
        {
          "internalType": "contract IWitnetPriceFeed[]",
          "name": "feeds_",
          "type": "address[]"
        },
        {
          "internalType": "uint256[]",
          "name": "priceDecimals_",
          "type": "uint256[]"
        },
        {
          "internalType": "uint256[]",
          "name": "baseUnits_",
          "type": "uint256[]"
        }
      ],
      "stateMutability": "nonpayable",
      "type": "constructor"
    },
    {
      "inputs": [
        {
          "internalType": "string",
          "name": "",
          "type": "string"
        }
      ],
      "name": "baseUnits",
      "outputs": [
        {
          "internalType": "uint256",
          "name": "",
          "type": "uint256"
        }
      ],
      "stateMutability": "view",
      "type": "function"
    },
    {
      "inputs": [
        {
          "internalType": "contract CToken",
          "name": "cToken",
          "type": "address"
        }
      ],
      "name": "getPrice",
      "outputs": [
        {
          "internalType": "uint256",
          "name": "",
          "type": "uint256"
        }
      ],
      "stateMutability": "view",
      "type": "function"
    },
    {
      "inputs": [
        {
          "internalType": "contract CToken",
          "name": "cToken",
          "type": "address"
        }
      ],
      "name": "getUnderlyingPrice",
      "outputs": [
        {
          "internalType": "uint256",
          "name": "",
          "type": "uint256"
        }
      ],
      "stateMutability": "view",
      "type": "function"
    },
    {
      "inputs": [],
      "name": "isPriceOracle",
      "outputs": [
        {
          "internalType": "bool",
          "name": "",
          "type": "bool"
        }
      ],
      "stateMutability": "view",
      "type": "function"
    },
    {
      "inputs": [
        {
          "internalType": "string",
          "name": "",
          "type": "string"
        }
      ],
      "name": "priceDecimals",
      "outputs": [
        {
          "internalType": "uint256",
          "name": "",
          "type": "uint256"
        }
      ],
      "stateMutability": "view",
      "type": "function"
    },
    {
      "inputs": [
        {
          "internalType": "string",
          "name": "",
          "type": "string"
        }
      ],
      "name": "priceFeeds",
      "outputs": [
        {
          "internalType": "contract IWitnetPriceFeed",
          "name": "",
          "type": "address"
        }
      ],
      "stateMutability": "view",
      "type": "function"
    }
  ],
  "transactionHash": "0xb8bfafad26c96a1c959a7a40ab6c38f1e5e209b0fb3ec72acc4fe9ec620fbc8b",
  "args": [
    [
      "maDAI",
      "maETH",
      "maUSDC",
      "maUSDT",
      "maWKAVA"
    ],
    [
      "0x4C5bE19CA11EAd22Ed0231D3AC63bFd1ABE10467",
      "0xD8EBAAf409a53668E630Eeed4c9a98C2248E0DBb",
      "0x7462896558d958117eab5C99436b09E5bb4dEc39",
      "0xD0749889c2560d38cA87903c09e0a14FDEDA0121",
      "0x4F861288D48dBB8d71B4e03f6748263b13294420"
    ],
    [
      "6",
      "6",
      "6",
      "6",
      "6"
    ],
    [
      "1000000000000000000",
      "1000000000000000000",
      "1000000",
      "1000000",
      "1000000000000000000"
    ]
  ],
  "numDeployments": 2,
  "solcInputHash": "d6ea044bc3f68680d21cd82f6e28effc",
  "bytecode": "0x60806040523480156200001157600080fd5b5060405162000d2538038062000d25833981016040819052620000349162000324565b60005b84518110156200018b57838181518110620000565762000056620004ae565b60200260200101516000868381518110620000755762000075620004ae565b60200260200101516040516200008c9190620004c4565b908152602001604051809103902060006101000a8154816001600160a01b0302191690836001600160a01b03160217905550828181518110620000d357620000d3620004ae565b60200260200101516001868381518110620000f257620000f2620004ae565b6020026020010151604051620001099190620004c4565b908152602001604051809103902081905550818181518110620001305762000130620004ae565b602002602001015160028683815181106200014f576200014f620004ae565b6020026020010151604051620001669190620004c4565b90815260405190819003602001902055806200018281620004e2565b91505062000037565b50505050506200050c565b634e487b7160e01b600052604160045260246000fd5b604051601f8201601f191681016001600160401b0381118282101715620001d757620001d762000196565b604052919050565b60006001600160401b03821115620001fb57620001fb62000196565b5060051b60200190565b60005b838110156200022257818101518382015260200162000208565b8381111562000232576000848401525b50505050565b600082601f8301126200024a57600080fd5b81516020620002636200025d83620001df565b620001ac565b82815260059290921b840181019181810190868411156200028357600080fd5b8286015b84811015620002b75780516001600160a01b0381168114620002a95760008081fd5b835291830191830162000287565b509695505050505050565b600082601f830112620002d457600080fd5b81516020620002e76200025d83620001df565b82815260059290921b840181019181810190868411156200030757600080fd5b8286015b84811015620002b757805183529183019183016200030b565b600080600080608085870312156200033b57600080fd5b84516001600160401b03808211156200035357600080fd5b818701915087601f8301126200036857600080fd5b815160206200037b6200025d83620001df565b82815260059290921b8401810191818101908b8411156200039b57600080fd5b8286015b848110156200042e57805186811115620003b857600080fd5b8701603f81018e13620003ca57600080fd5b8481015187811115620003e157620003e162000196565b620003f5601f8201601f19168701620001ac565b8181528f60408385010111156200040c5760008081fd5b6200041e828883016040860162000205565b855250509183019183016200039f565b50918a01519198509093505050808211156200044957600080fd5b620004578883890162000238565b945060408701519150808211156200046e57600080fd5b6200047c88838901620002c2565b935060608701519150808211156200049357600080fd5b50620004a287828801620002c2565b91505092959194509250565b634e487b7160e01b600052603260045260246000fd5b60008251620004d881846020870162000205565b9190910192915050565b60006000198214156200050557634e487b7160e01b600052601160045260246000fd5b5060010190565b610809806200051c6000396000f3fe608060405234801561001057600080fd5b50600436106100625760003560e01c806341976e0914610067578063510036831461008d57806366331bba146100b8578063cb8ae86c146100d0578063ed01c6701461011c578063fc57d4df14610147575b600080fd5b61007a610075366004610464565b61015a565b6040519081526020015b60405180910390f35b61007a61009b366004610503565b805160208183018101805160028252928201919093012091525481565b6100c0600181565b6040519015158152602001610084565b6101046100de366004610503565b80516020818301810180516000825292820191909301209152546001600160a01b031681565b6040516001600160a01b039091168152602001610084565b61007a61012a366004610503565b805160208183018101805160018252928201919093012091525481565b61007a610155366004610464565b61021f565b600080826001600160a01b03166395d89b416040518163ffffffff1660e01b8152600401600060405180830381865afa15801561019b573d6000803e3d6000fd5b505050506040513d6000823e601f3d908101601f191682016040526101c391908101906105b3565b905060006001826040516101d79190610621565b908152602001604051809103902054905060006101f383610305565b509050610201826012610653565b61020c90600a610750565b610216908261075c565b95945050505050565b600080826001600160a01b03166395d89b416040518163ffffffff1660e01b8152600401600060405180830381865afa158015610260573d6000803e3d6000fd5b505050506040513d6000823e601f3d908101601f1916820160405261028891908101906105b3565b9050600060018260405161029c9190610621565b908152602001604051809103902054905060006102b883610305565b5090506002836040516102cb9190610621565b908152604051908190036020019020546102e6836024610653565b6102f190600a610750565b6102fb908361075c565b610216919061077b565b60008060006001600160a01b03166000846040516103239190610621565b908152604051908190036020019020546001600160a01b031614156103835760405162461bcd60e51b81526020600482015260116024820152701b5a5cdcda5b99c81c1c9a58d951995959607a1b60448201526064015b60405180910390fd5b6000806000856040516103969190610621565b90815260408051918290036020018220546310c60e0d60e21b835290516001600160a01b039091169163431838349160048083019260809291908290030181865afa1580156103e9573d6000803e3d6000fd5b505050506040513d601f19601f8201168201806040525081019061040d919061079d565b5050915091506000821361045a5760405162461bcd60e51b815260206004820152601460248201527370726963652063616e6e6f74206265207a65726f60601b604482015260640161037a565b9094909350915050565b60006020828403121561047657600080fd5b81356001600160a01b038116811461048d57600080fd5b9392505050565b634e487b7160e01b600052604160045260246000fd5b604051601f8201601f1916810167ffffffffffffffff811182821017156104d3576104d3610494565b604052919050565b600067ffffffffffffffff8211156104f5576104f5610494565b50601f01601f191660200190565b60006020828403121561051557600080fd5b813567ffffffffffffffff81111561052c57600080fd5b8201601f8101841361053d57600080fd5b803561055061054b826104db565b6104aa565b81815285602083850101111561056557600080fd5b81602084016020830137600091810160200191909152949350505050565b60005b8381101561059e578181015183820152602001610586565b838111156105ad576000848401525b50505050565b6000602082840312156105c557600080fd5b815167ffffffffffffffff8111156105dc57600080fd5b8201601f810184136105ed57600080fd5b80516105fb61054b826104db565b81815285602083850101111561061057600080fd5b610216826020830160208601610583565b60008251610633818460208701610583565b9190910192915050565b634e487b7160e01b600052601160045260246000fd5b6000828210156106655761066561063d565b500390565b600181815b808511156106a557816000190482111561068b5761068b61063d565b8085161561069857918102915b93841c939080029061066f565b509250929050565b6000826106bc5750600161074a565b816106c95750600061074a565b81600181146106df57600281146106e957610705565b600191505061074a565b60ff8411156106fa576106fa61063d565b50506001821b61074a565b5060208310610133831016604e8410600b8410161715610728575081810a61074a565b610732838361066a565b80600019048211156107465761074661063d565b0290505b92915050565b600061048d83836106ad565b60008160001904831182151516156107765761077661063d565b500290565b60008261079857634e487b7160e01b600052601260045260246000fd5b500490565b600080600080608085870312156107b357600080fd5b50508251602084015160408501516060909501519196909550909250905056fea2646970667358221220bf5b24297252c079d856efe289c630a70b9673efa97118ab8e1af3f4f443e0ac64736f6c634300080a0033",
  "devdoc": {
    "kind": "dev",
    "methods": {
      "getUnderlyingPrice(address)": {
        "params": {
          "cToken": "The cToken to get the underlying price of"
        },
        "returns": {
          "_0": "The underlying asset price mantissa (scaled by 1e18).  Zero means the price is unavailable."
        }
      }
    },
    "version": 1
  },
  "userdoc": {
    "kind": "user",
    "methods": {
      "getUnderlyingPrice(address)": {
        "notice": "Get the underlying price of a cToken asset"
      },
      "isPriceOracle()": {
        "notice": "Indicator that this is a PriceOracle contract (for inspection)"
      }
    },
    "version": 1
  },
  "storageLayout": {
    "storage": [
      {
        "astId": 23734,
        "contract": "contracts/PriceOracle/WitnetPriceOracle.sol:WitnetPriceOracle",
        "label": "priceFeeds",
        "offset": 0,
        "slot": "0",
        "type": "t_mapping(t_string_memory_ptr,t_contract(IWitnetPriceFeed)25362)"
      },
      {
        "astId": 23738,
        "contract": "contracts/PriceOracle/WitnetPriceOracle.sol:WitnetPriceOracle",
        "label": "priceDecimals",
        "offset": 0,
        "slot": "1",
        "type": "t_mapping(t_string_memory_ptr,t_uint256)"
      },
      {
        "astId": 23742,
        "contract": "contracts/PriceOracle/WitnetPriceOracle.sol:WitnetPriceOracle",
        "label": "baseUnits",
        "offset": 0,
        "slot": "2",
        "type": "t_mapping(t_string_memory_ptr,t_uint256)"
      }
    ],
    "types": {
      "t_contract(IWitnetPriceFeed)25362": {
        "encoding": "inplace",
        "label": "contract IWitnetPriceFeed",
        "numberOfBytes": "20"
      },
      "t_mapping(t_string_memory_ptr,t_contract(IWitnetPriceFeed)25362)": {
        "encoding": "mapping",
        "key": "t_string_memory_ptr",
        "label": "mapping(string => contract IWitnetPriceFeed)",
        "numberOfBytes": "32",
        "value": "t_contract(IWitnetPriceFeed)25362"
      },
      "t_mapping(t_string_memory_ptr,t_uint256)": {
        "encoding": "mapping",
        "key": "t_string_memory_ptr",
        "label": "mapping(string => uint256)",
        "numberOfBytes": "32",
        "value": "t_uint256"
      },
      "t_string_memory_ptr": {
        "encoding": "bytes",
        "label": "string",
        "numberOfBytes": "32"
      },
      "t_uint256": {
        "encoding": "inplace",
        "label": "uint256",
        "numberOfBytes": "32"
      }
    }
  }
}